:020000040800F2
:10000000000002200D5F0008095F0008075F00087C
:10001000075F0008075F0008075F00080000000096
:10002000000000000000000000000000095F000860
:10003000095F000800000000095F0008B107000820
:10004000075F0008075F0008075F0008075F0008F8
:10005000075F0008075F0008075F0008075F0008E8
:10006000075F0008075F0008075F0008075F0008D8
:10007000075F0008075F0008075F0008075F0008C8
:10008000075F0008075F0008075F0008075F0008B8
:10009000075F0008075F0008075F0008075F0008A8
:1000A000075F0008075F0008075F0008075F000898
:1000B000075F0008075F0008075F0008075F000888
:1000C000075F0008075F0008075F0008075F000878
:1000D000075F0008075F00083D0C0008075F000885
:1000E000075F0008075F0008075F0008075F000858
:1000F000075F0008075F0008075F0008075F000848
:10010000075F0008075F0008075F0008075F000837
:10011000075F0008075F0008075F0008075F000827
:10012000075F0008075F0008075F0008075F000817
:10013000075F0008075F0008075F00089D030008CD
:10014000FD020008C1070008075F0008075F0008FC
:10015000075F0008075F0008075F0008075F0008E7
:10016000075F0008075F0008075F0008075F0008D7
:10017000075F0008075F0008075F0008075F0008C7
:10018000075F0008075F0008075F0008075F0008B7
:10019000075F0008075F0008075F0008075F0008A7
:1001A000075F0008075F0008075F000808B5A0F1B7
:1001B000780243F620239A4204D90848BDE8084053
:1001C00005F0ADBC064991FBF0F10448013905F09A
:1001D000ADFC0248BDE8084005F09CBC00040040AE
:1001E000E0707200014805F09ABC00BF00040040B6
:1001F00010B50C46FFF7DAFF34B1204600F05EFC84
:10020000BDE81040FFF7EEBF10BD08B564214FF404
:10021000FA60FFF7EDFF64214FF47A70BDE8084003
:10022000FFF7E6BF10B540F20160334C05F0BDFAB0
:1002300040F6010005F0B9FA102320460022022101
:1002400005F04AFA20461022022105F082FA102316
:1002500003220021204605F061FA40F20140A4F596
:10026000003405F0AFFA002319462022204605F09D
:100270002FFC2046022105F057FC2046002105F006
:1002800030FC8021204605F051FC204605F033FC6F
:10029000204605F03AFC2046002105F0A7FD204647
:1002A000012105F0A3FD2046002105F041FC204678
:1002B000002105F037FD2046002105F053FC032204
:1002C0002046002105F068FC2046002105F044FD91
:1002D00000221146204605F0AEFD0021204605F023
:1002E00060FD204605F007FC204605F018FCBDE83F
:1002F0001040FFF78ABF00BF00040240F0B50121A3
:1003000091B02048204E05F0D9F90AAB059308AB0F
:1003100004930DF11F0303930DF11E0302930DF1DE
:100320001D030022019307AB0093114606AB17484B
:1003300006AC05F063F90FCC0BAD0FC5144A23686A
:1003400017682B60134A336812680133BB42A8BF99
:1003500000239A4210D0104B34681B6814220BAD56
:1003600002FB04340FCD0FC42B68236033680133C4
:100370009F42D8BF002333600021044805F033F9C1
:1003800011B0F0BD00000240EC0B002000680040FE
:10039000DC060020E80B0020E40B00202C4BF0B51D
:1003A0001B6803F0013323F080738DB0002B4ED017
:1003B000284F294B3A681B689A421ED1FF268DF8B8
:1003C0000F6002AD0FCD07AC0FC42B6823608DF812
:1003D000236007AD0FCD02AC0FC49DF80F102B6842
:1003E0002360FF2927D101211C4805F092F8022142
:1003F0001B4805F065F90DB0F0BD1A4B3E681B684F
:10040000142202FB063635460FCD02AC0FC4164A45
:100410003B681268D5F800C0C4F800C001339342AD
:10042000A8BF002302AD3B600FCD07AC0FC4F67927
:10043000C4F800C0CBE704A8CDE900109DF80D304A
:100440009DF80C200299054805F068F8D3E7FEE70F
:1004500008680040F40B0020F80B00200068004002
:1004600000000240F00B0020E00B0020F0B51A4B1A
:100470001A4F3A681B689A4287B006460FD101218D
:10048000174805F01DF9FF238DF80B3001AD0FCD96
:1004900034460FC42B682360304607B0F0BD114BC3
:1004A0003C681B68142202FB04340FCC01AD0FC55D
:1004B0000D4A3B681268D4F800C0C5F800C001338B
:1004C0009342A8BF002301AC3B600FCC35460FC55B
:1004D000C5F800C0E0E700BFEC0B0020E80B0020EF
:1004E00000000240E40B0020DC06002084B0F0B5E0
:1004F00087B00CAC84E80F000CAD02211A4805F05F
:10050000DDF80FCD01AC0FC42B68184A184D1768E1
:100510002360184A2B6811680133BB42A8BF00232F
:10052000994218D02B68116801339F42D8BF00232D
:100530009942F7D0104B2C681B68142201AE02FBC5
:1005400004340FCE0FC4336823602B6801339F42FD
:10055000D8BF00232B600948012107B0BDE8F04057
:1005600004B004F0D2BF00BF00000240E00B002046
:10057000F80B0020F40B0020F00B00200068004076
:1005800000B58BB008284BD8DFE800F0051C212609
:100590002B30353A3F000023CDE90733FA2206928B
:1005A0004FF4801205924FF46022CDE90332CDE979
:1005B00001330093012219461B4804F0B7FE0BB02B
:1005C0005DF804FB0023CDE907337D22E7E7002334
:1005D000CDE907333222E2E70023CDE907331922C0
:1005E000DDE70023CDE907331422D8E70023CDE966
:1005F00007330A22D3E70023CDE907330522CEE7EC
:100600000023CDE907330322C9E74FF4801200230A
:100610000321CDE90521CDE907334FF43022C4E7AA
:100620004FF0FF30CBE700BF00680040434B444A27
:1006300070B500241C60434B434D1C60434B1C6051
:10064000434B1C60434B1A60434B444A1A60444B73
:1006500040261E60434B8CB040F201601E6005F0E6
:10066000A4F840F6190005F0A0F83F4804F052FE47
:1006700040F2016005F099F840F61A0005F095F88F
:10068000224628466023022105F026F860232146F1
:100690002846032205F042F8602209212846A5F5E4
:1006A000CE3505F056F8284604F034FE4FF480139A
:1006B0000922CDE905324FF4C0214FF08073CDE916
:1006C0000331224623462146CDE90744CDE90144C2
:1006D0000094284604F02AFE23462246214620465E
:1006E000009404F005FF012322460093214623468F
:1006F0000E2004F0FDFE0221284604F006FF3046DD
:1007000005F076FC0521304605F080FC3F2005F021
:100710006FFC06213F2005F079FC144B18680B9004
:100720000BAB0193042300932246234640F2FF7152
:10073000284604F0F3FE0CB070BD00BFF80B00209B
:10074000E0060020F40B002000040240EC0B002027
:10075000E80B0020F00B0020E40B0020DC0100205F
:10076000E00B0020DC0600200064004098600008D8
:1007700007B5014601A800F001FB9DF8040000F058
:1007800094FA9DF8050000F090FA03B05DF804FBC0
:1007900070B500240646254600F080FA00F000FB04
:1007A00001352401AE4244EA0004F5D1204670BD73
:1007B000024A136801331360704700BFFC0B00202E
:1007C00000B58BB008AB04930DF11A0303930DF140
:1007D0001B0302930DF119030022019306AB009352
:1007E000059207AB0121034804F008FF0BB05DF848
:1007F00004FB00BF006800402DE9F04389B003A866
:10080000FFF734FE9DF81360FF2E47D005AB93E849
:1008100003009DF81120039D9DF8108001AF87E82B
:10082000030052B3B8F1000F0CBF7220522000F049
:100830003CFAC5F307245FFA85F9B8F1000F22D01E
:10084000280EFFF795FFC5F30740FFF791FF2046FD
:10085000FFF78EFF4846FFF78BFF06F00F0040F0D2
:10086000300000F022FA0024E3B29E4211D80D209D
:1008700009B0BDE8F04300F018BAB8F1000F0CBFA2
:1008800074205420D3E704F00700303000F00DFA54
:10089000E0E7385DFFF76CFF0134E5E709B0BDE83C
:1008A000F08300002DE9F04F6F48704D8BB005F0DC
:1008B00095F800F009F94FF4C06004F076FF40F2BB
:1008C000016004F072FF2021684804F0F9FE012362
:1008D00019460022654804F0FFFE02230022012190
:1008E000624804F0F9FE2023002201215F4804F051
:1008F000F3FE4023002201215C4804F0EDFE0121BB
:100900005A4804F0DBFE0221584804F0D7FE0420C8
:1009100005F052FB564805F047FB05F059FB05F082
:100920005FFBFFF77FFC0A240121284604F0CBFE81
:100930000221284604F0C7FEC82000F0BFF8013CA1
:10094000F2D14FF4612000F0B3F9FFF76FFE00F031
:100950007DF90028FBDADFF81C910DF10C08FFF798
:100960004BFF484604F0A3FE044608B900BFF6E773
:1009700000F06CF9431CF2D0C0B254281BD00ADC42
:10098000522829D053283DD00025AA462F462E466E
:100990004FF0000B63E0722828D07428F4D10320B4
:1009A000FFF7F6FE82460120FFF7F2FE2546C7B2AA
:1009B0000024264609E00820FFF7EAFE82460120CF
:1009C000FFF7E6FE2546C7B20026082FE0D900F063
:1009D00065F90D28FBD1C2E70820FFF7D9FE824652
:1009E0000120FFF7D5FE2546C7B2E2E70320FFF757
:1009F000CFFE82460120FFF7CBFE25462646C7B232
:100A00000024E2E70120FFF7C3FEC0B2FFF7B8FD04
:100A10000026B2463546374600F040F90D28FBD196
:100A200095B198E8030007AB83E80300099B0093A6
:100A3000CDF814A08DF818408DF819608DF81B7052
:100A400005AB0FCBFFF752FD0D2000F02EF986E726
:100A50000220FFF79DFE08F80B000BF1010B5FFA77
:100A60008BF39F42F4D8D7E7886300080000024068
:100A700020BF0200006800400128B8BF012070B507
:100A800004460D4805F0E7F905460B4805F0E3F983
:100A9000A842FAD00848084E05F0DDF90546304670
:100AA00005F0D9F9A84238BF01342C44241A002C8F
:100AB0000546F4DC70BD00BF000C00404FF47A73B3
:100AC0005843FFF7D9BF000010B540F60300194C9A
:100AD00004F06BFE40F2034004F074FE204605F083
:100AE0001EF8154B1968154B20464900B1FBF3F170
:100AF000013905F019F8002319461A46204604F07A
:100B0000E7FF204604F0FCFF204605F008F84FF010
:100B1000FF31204605F0A1F9204604F0F6FF2046FB
:100B20004FF0FF3105F002F82046BDE8104004F018
:100B3000F1BF00BF000C0040D401002040420F0074
:100B40000E4B70B50E4C19680E4E22462368356860
:100B500001338B42A8BF00239D42F7D00A4C136893
:100B60002468E0541368094801339942D8BF002330
:100B7000136005F0B6F9002070BD00BF040E002020
:100B80001C0E0020180E0020140E0020004400400F
:100B90000F4803689B0610B518D505F0B0F90D4A4B
:100BA0000D4913680D4C0968246801338B42A8BFB6
:100BB00000239C42C0B209D0094C13682468E05459
:100BC000136801339942D8BF0023136010BD00BFE2
:100BD00000440040100E0020000D00200C0E0020EC
:100BE000080E0020104803681B0610B419D50F4AE0
:100BF0000F4B11681B68994203D15DF8044B05F057
:100C000075B90C49136809680B4CC95C13682468F2
:100C10000133A342A8BF00235DF8044B136005F025
:100C20006AB95DF8044B704700440040180E00207C
:100C30001C0E0020140E0020040E002008B5FFF743
:100C4000A7FFBDE80840FFF7CDBF00000E4B1A68B4
:100C500022B100221A606FF0010070470B4A0C4B62
:100C600011681B6899420CD00A4913680968C85C6E
:100C700009491368096801338B42A8BF0023136038
:100C800070474FF0FF307047200E00200C0E002000
:100C9000100E0020080E0020000D002008B5FFF700
:100CA000D5FF431CFBD0C0B208BDFFF749BF000011
:100CB000274B284A70B500251D60274B274C1D6027
:100CC000274B1D60274B1D604FF480731360264A2D
:100CD0001360264B264A1A60264B274A1A6006469E
:100CE00040F6110004F061FD0C232A462046022143
:100CF00004F0F2FC0C2220460721A4F5DE3404F0B7
:100D000028FD3146204605F0ABF82046082105F0C5
:100D1000BDF82946204605F0C2F820460C2105F012
:100D2000CAF82946204605F0C0F82946204605F0B5
:100D3000C8F80421262005F069F9262005F058F9A5
:100D4000204605F0C9F82046BDE8704005F0BFB860
:100D50001C0E0020040E0020180E0020000002408F
:100D6000100E00200C0E0020000D0020140E00209C
:100D7000040D0020080E0020000C00200A0902F1DA
:100D80003003392B88BF02F1370301F00F010370E4
:100D900001F13003392B88BF01F1370343707047ED
:100DA00003463038C0B2092806D9A3F14102052A0A
:100DB00094BF373B573BD8B270472DE9FF4755ECFE
:100DC000104B0D9FDDF830A0002D0E4691461946C0
:100DD000B8BF22462B4627F02007BBBF05F10043D2
:100DE0001D4600232D23B8BF1446462F0B7004D098
:100DF000452F00D10136022100E0032103AB01930E
:100E000002AB00933246534645EC104B01F080FD97
:100E1000472F804602D119F0010F26D0462F08EB4C
:100E2000060911D198F80030302B0AD10022002396
:100E30002046294604F080F918B9C6F10106CAF81F
:100E40000060DAF800309944002200232046294649
:100E500004F072F938B93022039B4B4505D2591C76
:100E600003911A70F8E7CDF80C90039B0E9AA3EB50
:100E700008034046136004B0BDE8F087F7B50029C9
:100E80000446BABF49422D232B23092904F8022B1B
:100E9000437020DD0DF107031F460A2691FBF6F58E
:100EA00006FB15113031092D03F8011C03F1FF3247
:100EB000294609DC3031023B02F8011CBB422246C4
:100EC00004D3101A03B0F0BD1346E7E713F8012B63
:100ED00004F8012BF2E7302319448370021DC1701E
:100EE000EFE700002DE9F04F8DB00C46DDF858809B
:100EF00016461F46054602F0EFFD036804931846A8
:100F000000F0C0FD00230A93D8F8003005900733A5
:100F100023F0070303F1080294F818A0D4F800B0F6
:100F2000C8F80020D3E90023C4E91223D4E91289C8
:100F300029F000430793CDF818804FF0FF32A74BFC
:100F4000DDE9060104F02AF970BB4FF0FF32A34B34
:100F5000DDE9060104F004F930BB0022002340461D
:100F6000494604F0F3F810B12D2384F843309C4A2D
:100F70009C4BBAF1470F8CBF9046984603232BF049
:100F80000402236122604FF00009009733460BAA48
:100F90002146284600F0E6F9013040F08D804FF000
:100FA000FF300DB0BDE8F08F42464B464046494603
:100FB00004F0F4F810B18C4A8C4BDAE761684B1CF2
:100FC0004BF480620AA83ED1062363600023CDE97A
:100FD000020309AB009349EC108B0DF1230322604F
:100FE000CDF804A061682846FFF7E7FE0AF0DF03AA
:100FF000472B804609D1099BD81C02DB62689342CB
:1010000047DDAAF1020A5FFA8AFABAF1650F099977
:1010100024D80139524604F150000991FFF72EFF00
:101020000A9A1318012A8146236102DC2268D1073B
:1010300001D5013323619DF82330002BA5D02D234A
:1010400084F84330A1E7BAF1670F00F07781BAF175
:10105000470FBBD10029B9D10123B6E7BAF1660F1A
:1010600019D1002963680CDD216113B92268D20708
:1010700002D501330B442361099BA3654FF000099E
:10108000D9E713B92268D00701D50233F3E701236A
:10109000F1E74FF0670ADDE90932934205DB226888
:1010A0002361D107E8D50133E5E7002BD4BFC3F1B5
:1010B000020301231344DEE723685A0507D423699A
:1010C000424631462846B84701302BD167E7BAF18E
:1010D000650F40F2DC8000220023D4E9120104F005
:1010E0002BF8002833D00123414A31462846B8471F
:1010F00001303FF454AFDDE909239A4202DB236853
:10110000D8070FD5DDE9042331462846B84701301A
:101110003FF445AF4FF0000804F11A090A9B013B68
:10112000434509DC23689B0700F10381E0680B9BC2
:101130009842B8BF184634E701234A46314628464C
:10114000B84701303FF42BAF08F10108E6E7099BEF
:10115000002B2BDC0123264A31462846B8470130B4
:101160003FF41DAF099B23B90A9B13B92368D90724
:10117000D8D5DDE9042331462846B84701303FF48D
:101180000EAF4FF0000904F11A0A099B5B424B4570
:1011900001DC0A9B94E70123524631462846B847B2
:1011A00001303FF4FCAE09F10109EEE70A9AA36DA4
:1011B0009A42A8BF1A46002A914607DD13463146D7
:1011C00042462846B84701303FF4E9AE04F11A031D
:1011D0004FF0000B29EAE979069315E0FFFFEF7F56
:1011E000A06000089C600008A8600008A4600008D7
:1011F000AC6000080123069A31462846B847013002
:101200003FF4CDAE0BF1010BD4F858A0AAEB0903C3
:101210005B45EFDCDDE909239A42D04415DB236806
:10122000DA0712D40A9B0999A3EB0A02A3EB010A7D
:101230009245A8BF9246BAF1000F0EDC4FF00008AD
:101240002AEAEA7A04F11A0919E0DDE904233146B1
:101250002846B8470130E5D1A1E65346424631461B
:101260002846B8470130E9D199E601234A4631467C
:101270002846B84701303FF492AE08F10108DDE995
:1012800009239B1AA3EB0A034345EEDC4AE70A9ABB
:10129000012A01DCDB073AD50123424631462846C4
:1012A000B84701303FF47BAEDDE9042331462846E0
:1012B000B847013008F101083FF471AE0A9B0022E3
:1012C00003F1FF3AD4E91201002303F035FFC8B956
:1012D0005346424631462846B84701300ED15EE6B5
:1012E0000123524631462846B84701303FF457AEF5
:1012F00008F101080A9B013B4345F1DC4B4604F130
:101300005002DEE64FF0000804F11A0AF2E701236A
:10131000DFE701234A4631462846B84701303FF40B
:101320003EAE08F10108E3680B9A9B1A4345F0DCD6
:10133000FCE64FF0000804F11909F4E700293FF436
:101340008BAE0023CDE9020309AB009349EC108B6F
:101350002260CDF804A00DF123032846FFF72DFDF0
:10136000804648E62DE9F04791461F468A680B699A
:10137000DDF820809342B8BF1346C9F8003091F8D9
:10138000432006460C4612B10133C9F800302368E9
:10139000990642BFD9F800300233C9F800302568F9
:1013A00015F0060507D104F1190AE368D9F8002001
:1013B0009B1AAB4228DC94F843302268003318BFF4
:1013C000012392062DD404F1430239463046C0472A
:1013D000013020D02368E568D9F8002003F0060327
:1013E000042B08BFAD1AA36822690CBF25EAE57576
:1013F00000259342C4BF9B1AED184FF000091A3420
:101400004D451AD1002008E00123524639463046A6
:10141000C047013003D14FF0FF30BDE8F087013500
:10142000C3E7E1185A1C302081F84300224494F8A5
:10143000451082F843100233C5E70123224639469E
:101440003046C0470130E6D009F10109D8E7000075
:101450002DE9F04301F1430C0C46097E85B06E295D
:101460001746064698460C9A00F0B38022D86329A6
:1014700036D00AD8002900F0B980582900F08380BE
:1014800004F1420584F8421032E0642901D0692950
:10149000F6D120681368050603F104012AD51B68FC
:1014A0001160002B03DA2D225B4284F843206F4841
:1014B0000A2239E0732900F09D8008D86F2920D0D6
:1014C0007029DDD1236843F02003236003E07529F0
:1014D00017D07829D4D1782384F84530644855E072
:1014E0001368191D1B68116004F1420584F842302D
:1014F00001238CE01B68116010F0400F18BF1BB275
:10150000CFE713682568181D1060280601D51B68F1
:1015100002E06806FBD51B8854486F2914BF0A22D5
:101520000822002184F843106568A560002DC0F2F0
:101530009580216821F004012160002B3DD1002D10
:1015400040F08E806546082A0BD12368DB0708D55A
:10155000236962689A42DEBF302305F8013C05F139
:10156000FF35ACEB05032361CDF800803B4603AAB1
:1015700021463046FFF7F6FE01304DD14FF0FF30E7
:1015800005B0BDE8F083394884F845101368216838
:101590001D1D1B6815600A060BD5CA0744BF41F024
:1015A000200121601BB9226822F020022260102253
:1015B000B7E74D0648BF9BB2EFE76546B3FBF2F1D4
:1015C00002FB1133C35C05F8013D0B460029F5D140
:1015D000B9E7136825686169181D106028061B6843
:1015E00001D5196002E06A06FBD51980002323614A
:1015F0006546B9E71368191D11601D68626800210E
:10160000284602F095FA08B1401B606063682361C8
:10161000002384F84330A7E723692A463946304639
:10162000C0470130AAD023689B0713D4E068039B0E
:101630009842B8BF1846A3E701234A4639463046C8
:10164000C04701309AD00135E368039A9B1AAB4238
:10165000F2DCEBE7002504F11909F5E7002BACD12A
:10166000037884F8423004F142056CE7AE6000086C
:10167000BF6000082DE9F04F9A468B6816465A1E47
:10168000B2F5AE7F87B083BF6FF4AE729B18019343
:10169000002386BF40F25D138B6001930B68884680
:1016A0004FF0000B43F4F06348F81C3BCDE903BB5B
:1016B00007460C4645465A46D946CDF808B0A168BB
:1016C00081B133681B78492B71D04DD8392B40D864
:1016D000312B80F088802D2B00F0908015D82B2B9B
:1016E00000F08C80B9F1000F03D0236823F48073DD
:1016F0002360013A012A00F2EA80454500F2DC80CD
:101700000126304607B0BDE8F08F2E2B00F09F80F9
:10171000302BE7D1206810F4807F64D0019B20F04B
:101720008000206009F101091BB1013B01310193E7
:10173000A160A368013BA36023690133236173683F
:10174000013B002B736040F3AC803368013333609E
:10175000B5E7452B00F08580462B6AD0412BC1D1DF
:10176000012ABFD1022246E0652B7AD018D8542B2B
:1017700066D011D84E2BB5D1002A46D1B9F1000F51
:1017800045D1216801F4E060B0F5E06F3FD121F46C
:10179000F061216001222EE0592B1ED0612BDEE783
:1017A0006E2BE9D015D8662B43D0692B9AD1BBF1AB
:1017B000000F38D1B9F1000F97D1216801F4E06032
:1017C000B0F5E06F95D121F4F06121604FF0010B8D
:1017D00011E0742B34D0792B84D1BBF1070F81D168
:1017E0004FF0080B07E012EB0B0F7FF47BAF216883
:1017F00021F4C07121602B7001359AE72168080639
:101800007FF570AF21F08001F4E7022A47D0BBF1E9
:10181000010F03D0BBF1040F7FF464AF0BF1010B98
:101820005FFA8BFBE7E7BBF1030FF7D0BBF1050FC6
:10183000F2E7BBF1020F7FF455AF4FF0030BDAE78D
:10184000BBF1060F7FF44EAF4FF0070BD3E72168D3
:1018500088057FF547AF21F420712160CDF808900D
:10186000C9E7216801F4A060B0F5806F06D0480593
:101870007FF538AFB9F1000F3FF43BAF880558BF93
:10188000029821F4F06158BFA9EB000041F4C07147
:1018900058BFCDE9030521604FF00009ABE70322F3
:1018A000A9E7D4F880310592314638469847059A21
:1018B00000283FF404AF15E7D4F87C3115F8011D7A
:1018C0003246384698472369013B236115E70BF1FF
:1018D000FF33062B0AD8BBF1020F68D9ABF1030B1B
:1018E0005FFA8BFBA5EB0B0B5D454BD12368DA054B
:1018F0001FD55B0568D415F8011C2369652903F120
:10190000FF3305F1FF3B23610DD045290BD0D4F8FF
:101910007C31324638469847236915F8021C013B52
:10192000A5F1020B2361D4F87C3132463846984742
:101930005D46266816F010067AD12E70236803F4EF
:10194000C063B3F5806F42D1029BA9EB03035A42F7
:10195000002B49D100224146384600F0ADFE2568F3
:10196000DAF8003015F0020F03F1040259EC108B85
:10197000CAF8002043D01B68C3E90089E36801333B
:10198000E360BEE6D4F87C3115F8011D32463846D6
:1019900098472369013B2361A6E7D4F87C3115F809
:1019A000011D3246384698472369013B236145456E
:1019B000F3D8A5E6D4F87C3115F8011D3246384637
:1019C00098472369013B23614545F3D898E6039B7B
:1019D000002BBFD004990A2332460131384600F06B
:1019E000F7FE039B049DC21A04F26F139D4228BFA9
:1019F00004F5B7750F49284600F024F8AAE715F05A
:101A00000405B8D11F6810EE102A4B4610EE100ADC
:101A1000494603F0C3FB28B1284600F00DF887EDD6
:101A2000000AABE74046494603F016FC3860A5E7DC
:101A3000002666E6D06000089FED010A704700BFEF
:101A40000000C07F0EB400B59CB01DAB02900690A4
:101A50006FF00041094807910491094953F8042B9C
:101A600005910068019302A902F0CCFD029B0022BF
:101A70001A701CB05DF804EB03B070470000002042
:101A80000802FFFF034613F8012B002AFBD1181AA6
:101A90000138704770B504460D4645EC104B1646AC
:101AA00002F06CFB51EC100B7EB1C5F30A53C3F18D
:101AB0006B03002B09DD1B0503F17F55002405F5A1
:101AC000401522462B4603F0CFF870BD0000000001
:101AD0002DE9F04F1F46A1B00023814638460E463F
:101AE00017921C9301F0F5FF80460068FFF7CAFFCC
:101AF0004FF0000A04464FF0000B1B961B9B1A7810
:101B00000D2A32D8092A36D2002A3ED000230D935E
:101B10001B9D2B78302B40F0AC806B78582B01D07C
:101B2000782B67D10D9B01931CAB009302971DABE3
:101B3000884A1BA9484601F0F2FC10F0070406464B
:101B400005D0062C2BD1013500231B950D93179B37
:101B5000002B40F09A850D9BE3B152460BF10043F8
:101B600043EC102B21B0BDE8F08F2B2A15D02D2A85
:101B700004D0202ACAD101331B93BFE701220D9262
:101B80005A1C1B925B78002BC2D1179B1B96002B13
:101B900040F0798552465B46E2E70022EFE71C9A67
:101BA0003AB135211EA802F0E1FB1C99484602F02B
:101BB0004EF8013C042C06D8DFE804F00A031417A1
:101BC0000A00DDE91EAB3007C1D54BF0004BBEE784
:101BD000DDE91EA31D9A23F4801302F2334243EA87
:101BE000025BF0E7DFF870B1EDE76FF0004B4FF00C
:101BF000FF3AE8E71B9B5A1C1B925B78302BF9D00D
:101C0000002BA4D00123002506931B9B0893079566
:101C100005950A221B980778A7F13003D9B2092944
:101C200029D92246D8F8001002F0F2FD002831D060
:101C30000020059C04903B460246652B01D0452BB5
:101C400014D124B910B9069B002B9ED000241B9EF2
:101C5000731C1B9373782B2B78D02D2B70D04FF0E7
:101C6000000CA3F13007092F7CD91B964FF0000E12
:101C70009AE00023C7E705990829DDBF079902FB11
:101C80000133079302FB0535059B013001330593B2
:101C90001B90BFE71B9B1A191B92059A1B5D002A1C
:101CA00037D0059C0246A3F13001092913D901213F
:101CB0000491C2E71B9B5A1C1B925B780130302BAE
:101CC000F8D0A3F13102082A00F2E4841B9A0892AA
:101CD000024600200446B3F1300E00F1010112D09B
:101CE0000A4400EB040C21460A278C4513D1211825
:101CF000082904F10104044419DC079B0A2101FBB3
:101D000003E3079300211B9B581C1B905B7808463C
:101D1000C9E70598D3E7082901F1010103DC079B16
:101D20007B430793E1E71029D8BF7D43DDE7102C03
:101D3000DCBF0A2101FB05E5E4E70123049381E709
:101D40004FF0010CB31C1B93B3788AE74FF0000CE3
:101D5000F8E700BFD86000080000F07F1B9B5F1C05
:101D60001B975B78302BF9D0A3F13107082F3FF692
:101D70007DAFA3F1300E1B9B0A931B9B5F1C1B972F
:101D80005B78A3F13008B8F1090F37D90A997F1AA7
:101D9000082F44F61F6737DCBE45A8BFBE46BCF11E
:101DA000000F01D0CEF1000E002C51D100287FF49D
:101DB000CEAE069A002A7FF4CAAE049A002A7FF4B7
:101DC000E4AE4E2B27D021DC492B7FF4DEAEA049B8
:101DD0001BA801F0D7FD00283FF4D7AE1B9B9D49FF
:101DE000013B1BA81B9301F0CDFD10B91B9B0133D8
:101DF0001B93DFF874B24FF0000AA8E60A2101FB3A
:101E00000E3EAEF1300EB8E7BE46C8E7692BDED015
:101E10006E2B7FF4BAAE90491BA801F0B3FD0028E9
:101E20003FF4B3AE1B9B1B78282B0ED11EAA8B4907
:101E30001BA801F0BBFD052807D11F9BDDF878A08A
:101E400043F0FF4B4BF4E00B81E6DFF824B2D2E71E
:101E5000AEEB02030693059B0798002B08BF2346B1
:101E6000102C0593A046A8BF4FF0100802F082FE88
:101E7000092C82468B4613DC069B002B3FF467AE91
:101E8000069B7ADD162B61DC754A02EBC30EDEE998
:101E9000000152465B4602F0E7FE82468B4656E65C
:101EA0006F4B03EBC80353E9122302F0DDFE064635
:101EB00028460F4602F05EFE02460B463046394683
:101EC00002F01CFD0F2C82468B46D5DD069BA4EB51
:101ED00008089844B8F1000F40F3968018F00F03FB
:101EE0000AD05F4901EBC30152465B46D1E90001CC
:101EF00002F0BAFE82468B4638F00F0873D0B8F570
:101F00009A7F47DD0024A046079405942223DFF83A
:101F100058B1C9F800304FF0000A079B002B3FF47E
:101F200016AE1C99484601F092FE0599484601F00C
:101F30008EFE4146484601F08AFE0799484601F068
:101F400086FE2146484601F082FE00E6069AC4F16C
:101F500025039342BADB424DC4F10F0405EBC401E3
:101F600052465B46D1E9000102F07EFE069B1C1B37
:101F700005EBC405D5E900238DE713F1160FA5DBAA
:101F8000374AA2EBC302D2E900235046594602F079
:101F900095FF82E70023334E4FEA281850465946F2
:101FA0001D46B8F1010F21DC0BB182468B462D4B4B
:101FB000ABF1547B03EBC50552465B46D5E9000106
:101FC00002F052FE284B0A460B4028498B428246BB
:101FD00098D8A1F580118B4286BFDFF898B04FF0FA
:101FE000FF3A02F1547B0023049377E018F0010FCD
:101FF00006D006EBC503D3E9002302F035FE01232A
:1020000001354FEA6808CCE7EDD0C8F1000818F0B8
:102010000F020AD0124B03EBC20350465946D3E9D4
:10202000002302F04BFF82468B465FEA2818DAD085
:10203000B8F11F0F20DD0024A04607940594222349
:102040004FF0000A4FF0000BC9F8003065E700BF01
:10205000A16000082B610008A9600008EC6000087E
:1020600068610008406100080000F07F0000A07C6B
:102070000000F8FFFFFFEF7F18F0100318BF6A237E
:10208000A04D0493504659460023B8F1000F00F3C9
:102090000A810BB182468B46049BBBB1CBF30A533A
:1020A000C3F16B03002B594610DD1F2B40F3078152
:1020B000342BDEBF203B4FF0FF3202FA03F34FF028
:1020C000000ACCBF4FF05C7B03EA010B0022002327
:1020D0005046594603F030F80028ACD1079B0093D6
:1020E000059A08992346484601F003FE0790002808
:1020F0003FF408AF069A069B002AC3F10003A8BF6D
:1021000000230E93002422EAE2731693A046079B55
:102110004846596801F067FD059000283FF4F6AE87
:10212000079B1A69023203F10C0192000C3001F096
:102130004FFD1EAA1DA94BEC10AB4846CDE908ABDC
:1021400002F092F81C9000283FF4E0AE01214846CE
:1021500001F05BFE804600283FF4D8AE1D9E1E9A1B
:10216000002EABBF0E9B169B169D0E9FACBFF718A3
:102170009D1B049BF61A1644634B013E9E42C2F11E
:10218000360280F2AF809B1B1F2BA2EB03024FF0A5
:10219000010100F39B8001FA03F30F9300230A93DC
:1021A000BE18049BB74215441D443B46A8BF3346A6
:1021B000AB42A8BF2B46002BC2BFF61AED1AFF1A7E
:1021C0000E9BBBB141461A46484601F0BDFE804613
:1021D00000283FF49BAE01461C9A484601F01EFEC3
:1021E0000C9000283FF492AE1C99484601F02FFD58
:1021F0000C9B1C93002E7ADC069B002B08DD169AA4
:102200000599484601F0A0FE059000283FF47EAEF7
:10221000002D08DD2A460599484601F0E3FE0590A9
:1022200000283FF473AE002F08DD41463A46484689
:1022300001F0D8FE804600283FF468AE059A1C994C
:10224000484601F03DFF044600283FF45FAEC368F6
:102250000C930023C360414601F018FF002855DAB3
:102260000C9BE3B9BAF1000F19D1CBF31303B3B947
:102270002BF000431B0D1B05B3F1D66F0FD963691B
:1022800013B92369012B0ADD21460122484601F0DA
:10229000A9FE4146044601F0F9FE002867DC049BD4
:1022A000002B71D13DE618F0010F04D0D5E90023D1
:1022B00002F0DAFC01234FEA68080835E5E64FF042
:1022C000FF3202FA03F303EA0A0AFFE6C6F17F4689
:1022D00006F57F0606F57B46E23601FA06F30A9319
:1022E0000F915DE700230A9301230F9358E73246CD
:1022F0001C99484601F076FE1C9000287FF47CAFC4
:1023000004E600BF0061000802FCFFFF5D4640F0EC
:1023100086800C9ACBF313032AB3AF4A934253D16E
:10232000049B5046D3B1AD4A2A40B2F1D46F4FF06E
:10233000FF3116D8120DC2F16B0301FA03F3984274
:1023400042D1A74B9D4202D101303FF4DFADA34BF8
:102350002B4003F5801B4FF0000AA0E74FF0FF333E
:10236000EDE70B46EBE77BBBBAF1000F2CD10499EC
:102370009A4A5B46F1B102EA0B01B1F1D66F19DC62
:10238000B1F15C7F7FF75BAE964A0023CDE9143252
:1023900050465946DDE9142302F066FC82468B461E
:1023A00000297FF4BEAD00287FF4BBAD2223C9F81D
:1023B0000030B6E51340A3F580136FEA135B6FEAB4
:1023C0000B5B4FF0FF3A6AE70A9B93B12B423FF455
:1023D00066AF0C9B049A5046594673B1FFF75AFBFF
:1023E00002460B46DDE9080102F088FA82468B4678
:1023F00055E70F9B13EA0A0FE9E7FFF74BFB02468D
:102400000B46DDE9080102F077FA0022002382463C
:102410008B4602F091FE00287FF411AE3FE7414663
:10242000204601F070FF57EC106B00224FF0804304
:1024300010EE100A394602F093FE002877D00C9B6C
:10244000002B4AD0684B0022CDE90A23664F0026B4
:10245000624B2B400F930F9A644B9A4240F0CE8010
:10246000DDE90823DDE90A01A5F1547B4BEC10AB53
:10247000CDE91423CDE90A0101F080FEDDE90A016E
:1024800053EC102B02F0F0FB52465B4602F036FA9A
:102490000B465249564A1940914282465BD9099BE4
:1024A00002F15472934203D1089B01333FF42EADE5
:1024B000DFF82CB14FF0FF3A1C99484601F0C7FBFA
:1024C0000599484601F0C3FB4146484601F0BFFB71
:1024D0002146484601F0BBFB19E6BAF1000F1AD1BC
:1024E000CBF31303EBB900223F4B3046394602F0E1
:1024F0002DFEC8B93046394600223E4B02F0B4FBEF
:1025000006460F4607F1004318961993DDE9182394
:10251000CDE90A239CE7BAF1010F02D1002D3FF467
:102520008EAD0022344B8FE70026324FEAE7314B65
:1025300030463946002202F097FB0C9B06460F46B8
:1025400033B901F1004310901193DDE91023DFE767
:10255000CDE91067F9E703F1547B049B002BABD165
:102560002BF000431B0D0F9A1B059A425D46A3D129
:102570003946304602F028FE02F00CFB0B460246BC
:102580003946304602F0B8F90C9B06460F4633B97F
:10259000BAF1000F03D1CBF31305002D6DD00AA3C0
:1025A000D3E900233046394602F0D0FD00287FF4FD
:1025B000B8AC07A3D3E900233046394602F0E4FD66
:1025C00000283FF479AFACE49535A094FFFFDF3FDE
:1025D00035E5AF350000E03FFFFF0F000000F07F62
:1025E000FFFFEF7F000050390000F03F0000E07F68
:1025F000FFFF9F7C0000E03F0000F0BF049B33B36F
:102600000F9BB3F1D46F22D827A3D3E90023304620
:10261000394602F0A5FDA0B13946304602F0FCFD76
:10262000002808BF012002F0A5FA0C9B06460F46C1
:1026300003BB01F1004312901393DDE91223CDE9AE
:102640000A230B9B0F9A03F1D6639B1A0B939DED04
:10265000080BDDE90AAB01F091FD504653EC102B5D
:10266000594602F001FBDDE9082302F047F98246F2
:102670008B4672E7CDE91267DFE70DA3D3E90023AC
:1026800002F064FD9CE700230D93179A1B9B1360D7
:10269000FFF761BA652B4FF000023FF44EAB01210A
:1026A00014460491FFF7CBBA0000C0FFFFFFDF41E3
:1026B0009535A094FFFFCF3F054B1B6810B41B6AF4
:1026C000044C002B08BF23465DF8044BFFF700BA0B
:1026D00000000020640000202DE9F0478046894674
:1026E00092461E460F463D46089815F8014B01F0EC
:1026F000EDF92044437813F0080332D12D2C32D168
:102700007C78BD1C0122002E5DD0102E09D1302C0A
:1027100007D12B7803F0DF03582B4FD16C781026AC
:102720000235002A14BF4FF000416FF0004100272E
:10273000B1FBF6FC384606FB1C1EA4F13003092B46
:1027400017D81C46A64223DD7B1C07D084451CD32A
:1027500001D1A64519DB00FB0640012715F8014B06
:10276000EBE72F46BFE72B2C04BFBD1C7C781A4635
:10277000C9E7A4F14103192B01D8373CE2E7A4F1E2
:102780006103192B04D8573CDCE74FF0FF37E5E72E
:102790007B1C08D12223C8F800300846BAF1000F8C
:1027A00007D1BDE8F08702B14042BAF1000FF8D07E
:1027B0000FB105F1FF39CAF80090F2E73024002E7E
:1027C000AFD10826ADE7302CA3D00A26A9E7000038
:1027D00037B5064C064D2468246A002C08BF2C46E9
:1027E0000094FFF779FF03B030BD00BF0000002068
:1027F000640000202DE9F74F03690C69A34280466D
:10280000C0F28280013C01F114074FEA840C00F110
:10281000140657F8245056F8240006EB0C03013533
:1028200007EB0C090193B0FBF5F595B34FF0000AE7
:102830003846B646D34650F8042B93B205FB03A3A3
:102840004FEA134A9BB2ABEB0303120CDEF800B065
:1028500005FB02A213FA8BF34FEA124A1FFA82FB1E
:10286000DEF80020CBEB124202EB23429BB243EA9C
:10287000024381454FEA224B4EF8043BDBD256F827
:102880000C3033B9019B043B9E421A4630D3C8F842
:102890001040404601F0FAFB002825DB01353046A8
:1028A0004FF0000C57F8042BD0F800E093B2ACEBDB
:1028B0000303120C13FA8EF3C2EB1E4202EB234207
:1028C0009BB243EA0243B9454FEA224C40F8043B2D
:1028D000E8D256F8242006EB84032AB9043B9E4232
:1028E0001A460BD3C8F81040284603B0BDE8F08F55
:1028F0001268043B002ACAD1013CC5E71268043BB8
:10290000002AEFD1013CEAE70020EEE700000000DA
:102910002DE9F04F57EC106B97B0456A06910446CD
:102920000B921293DDF88080CDE900673DB910204D
:1029300001F0E0F86062C0E901550560C560636AB6
:10294000196851B15A684A60012393408B60204650
:1029500001F07DF9636A00221A603B1EBBBF23F0C1
:102960000043019300230122ACBFC8F80030C8F82F
:102970000020AF4BDDF8048033EA080314D1129A2B
:1029800042F20F731360009B23B9C8F313000028B1
:1029900000F04285219BDFF8ACB2002B00F04485AB
:1029A0000BF1030300F03EBDDDE9006700220023C8
:1029B0003046394602F0C0FB814668B1129A0123C5
:1029C0001360219B002B00F024859A4B219A03F180
:1029D000FF3B136000F028BD14AA15A947EC106B4B
:1029E000204601F041FCC8F30A550490002D7CD02C
:1029F000C7F3130343F07F5BB2464BF4401BA5F2D1
:102A0000FF35CDF84C9000228B4B5046594601F0D3
:102A100073FF81A3D3E9002302F026F980A3D3E951
:102A2000002301F06BFF064628460F4602F0B2F87D
:102A30007DA3D3E9002302F017F902460B46304686
:102A4000394601F05BFF06460F4602F0BDFB00224F
:102A5000824600233046394602F078FB48B15046A2
:102A600002F098F832463B4602F066FB08B90AF1DC
:102A7000FF3ABAF1160F59D8704901EBCA01DDE9E6
:102A80000023D1E9000102F07FFB002850D00AF1B9
:102A9000FF3A00230F93149B5D1BB5F1010849BF5A
:102AA000C5F10103002305934FF0000858BF0593BB
:102AB000BAF1000F3EDB0023D044CDF838A00793D5
:102AC000069B092B00F29080052BC4BF043B0693A4
:102AD000069BA3F10203CCBF00250125032B00F2C6
:102AE0008F80DFE803F07D7F3171DDE914531D44F1
:102AF00005F23240202813DDC0F14000009B08FAA7
:102B000000F805F2124023FA00F048EA000002F053
:102B100031F801238246A1F1F87B013D139372E75E
:102B2000009BC0F1200003FA00F0F0E70123B1E7B9
:102B30000F90B0E7059BA3EB0A030593CAF10003CE
:102B4000079300230E93BBE701230A930B9B002BF3
:102B500059DD02939946666A00227260042202F1EE
:102B600014009842716853D9204601F03CF8636A1A
:102B70003060B9F10E0FD3F800B000F2E680002DFE
:102B800000F0E3809DED007BBAF1000F8DED107B2E
:102B900074DD2A4A0AF00F0302EBC30393ED007BB6
:102BA0004FEA2A16F0068DED087B65D5244BDDE94A
:102BB0001001D3E9082302F081F9CDE9000106F004
:102BC0000F0603251E4F4CE001230A930B9B534431
:102BD00003F1010902934B46012BB8BF0123BAE769
:102BE0000023B2E70023F0E70125002306930A95AE
:102BF0004FF0FF3302939946002212230B92AAE76B
:102C000001230A93F4E70123029399461A46F5E754
:102C1000013171605200A2E761436F63A787D23F21
:102C2000B3C8608B288AC63FFB799F501344D33FBB
:102C30000000F07FAD6000080000F83F6861000808
:102C40004061000831610008F10708D5DDE908019D
:102C5000D7E9002302F008F8CDE908010135761024
:102C60000837002EF0D1DDE90823DDE9000102F08C
:102C700025F9CDE900011AE00225A3E700F0A080C4
:102C8000CAF100069F4BA04F06F00F0203EBC203F0
:102C9000D3E90023DDE9100101F0E6FFCDE90001F1
:102CA000361100230225002E7FD1002BE1D10F9B8E
:102CB000002B00F08780DDE900670022934B30464F
:102CC000394602F043FA00287CD0B9F1000F79D0E0
:102CD000029B002B35DD0AF1FF33089339460022B1
:102CE0008B4B304601F0C0FFCDE90001029F01355A
:102CF000284601F04FFFDDE9002301F0B5FF002277
:102D0000844B01F0FBFD0546A1F15076002F5DD10B
:102D10000022814BDDE9000101F0EEFD2A46334639
:102D2000CDE9000102F030FA002840F088822A46FE
:102D300006F10043DDE9000102F008FA002840F046
:102D40007C82DDE91023CDE90023159B002BC0F226
:102D50005081BAF10E0F00F34C816A4B03EBCA03AA
:102D600093ED007B0B9B002B8DED027B80F2D880D6
:102D7000B9F1000F00F3D48040F05E820022664B70
:102D800051EC170B01F070FFDDE9002302F0F2F9BE
:102D90004F464E46002840F0348231230BF10105A6
:102DA0008BF800300AF1010A2FE2F20705D5D7E9C6
:102DB000002301F059FF013501237610083772E72F
:102DC000022574E7CDF820A04F4691E74D4B03EB69
:102DD000C70353E902010A9B002B47D002460B466A
:102DE00000204E4902F06AF82A46334601F084FD7D
:102DF000CDE90C015D46DDE9000102F0E5F906468A
:102E000001F0C8FE02460B46DDE9000101F074FD49
:102E1000303605F8016BDDE90C23CDE9000102F045
:102E200095F9002863D1DDE900230020374901F03E
:102E300063FDDDE90C2302F089F9002840F0B7803A
:102E4000A5EB0B039F427FF77CAF0022304BDDE9FF
:102E50000C0101F009FF0022CDE90C012C4BDDE94A
:102E6000000101F001FFCDE90001C4E72A46334625
:102E700001F0FAFECDE90C010BEB07055E46DDE93A
:102E8000000102F0A1F9074601F084FE3037024646
:102E90000B46DDE9000101F02FFD06F8017BAE4293
:102EA000CDE900014FF0000226D11C4BDDE90C01F9
:102EB00001F024FD02460B46DDE9000102F064F951
:102EC000002874D1DDE90C230020144901F014FD21
:102ED00002460B46DDE9000102F038F900283FF414
:102EE00030AF15F8013C302B05F1FF3202D0DDF890
:102EF00020A04AE01546F4E7054B01F0B5FECDE908
:102F00000001BCE768610008406100080000F03F74
:102F10000000244000001C40000014400000E03F7E
:102F2000DDE900675D46DDE902233046394601F000
:102F3000C5FF02F049F9804601F02CFEDDE90223CD
:102F400001F092FE02460B463046394608F1300643
:102F500001F0D2FC05F8016BA5EB0B06B14502466A
:102F60000B4639D101F0CAFCDDE9022306460F46C3
:102F700002F00AF9C8B9DDE902233046394602F009
:102F8000DBF810B118F0010F0FD10499204600F0C2
:102F90005EFE0023129A2B700AF101031360219B3D
:102FA000002B00F041821D603EE2CDF820A015F814
:102FB000012C392A05F1FF3308D19B450AD1089B22
:102FC0000133089330238BF800305B461A780132C6
:102FD0001A708CE71D46EAE700229B4B01F044FE85
:102FE0000022002306460F4602F0A6F800289AD0D9
:102FF000CBE70A9A002A00F08B80069A012A6EDC41
:10300000139A002A67D003F23343079F059D059A60
:1030100001211A4420460592984400F0F6FE064627
:10302000002D0CDDB8F1000F09DD4545059A2B4652
:10303000A8BF4346D21A0592ED1AA8EB0308079BD6
:10304000EBB10A9B002B67D08FB131463A46204640
:1030500000F07AFF049A01460646204600F0DEFEA4
:1030600004990890204600F0F2FD089B0493079B0A
:10307000DA1B04D00499204600F066FF0490012179
:10308000204600F0C2FE0E9B0746002B00F0D081C8
:103090001A460146204600F057FF069B012B0746C3
:1030A00040DC009B002B39D1019BC3F31303002BA1
:1030B00036D1019B23F000431B0D1B052BB1059B53
:1030C0000133059308F10108012307930E9B002BA0
:1030D0002AD1012030E0149BC3F1360395E7079B0A
:1030E00009F1FF37BB42BFBF079B0797FA1A0E9B38
:1030F000BBBF9B180E93DF1B0027B9F1000FB5BFB4
:10310000059B059DA3EB09054B46B8BF00237EE751
:10311000079F059D0A9E83E7079AABE70023D4E744
:10312000009BD2E7002307933B6907EB83031869F1
:1031300000F01DFEC0F12000404410F01F0047D0F9
:10314000C0F12003042B3BDD059BC0F11C000344B0
:10315000059305448044059B002B05DD1A46049920
:10316000204600F03FFF0490B8F1000F05DD39461E
:103170004246204600F036FF07460F9B53B33946C0
:10318000049800F083FF002824DA00230A2204991F
:10319000204600F073FD0A9B04900AF1FF3A002BD1
:1031A00000F04D81002331460A22204600F066FDE2
:1031B000029B002B06464FDC069B022B4CDD11E0E8
:1031C000C9D0059A1C331A4405921D449844C2E79D
:1031D0000346F6E7B9F1000F38DC069B022B35DD1C
:1031E000CDF80890029B63B939460522204600F0CD
:1031F00045FD01460746049800F048FF00283FF7C8
:10320000CCAD0B9B5D466FEA030A4FF000093946CF
:10321000204600F01CFD002E3FF4B7AEB9F1000FC0
:1032200005D0B14503D04946204600F010FD314697
:10323000204600F00CFDA8E600273E46E1E7DDF859
:1032400020A03E46A9E500BF000024400A9BCDF81F
:103250000890002B00F0FA80002D05DD31462A464B
:10326000204600F0BFFE0646079B002B4CD071683D
:10327000204600F0B8FC326902320546920006F1A1
:103280000C010C3000F0A4FC01222946204600F07D
:10329000A9FE009BCDF814B003F00103B1460793DB
:1032A000064639460498FFF7A5FA4946054600F157
:1032B0003008049800F0EAFE324600903946204675
:1032C00000F0FEFEC368024603BB01460890049866
:1032D00000F0DCFE089A034611462046089300F0F1
:1032E000B6FC089BA3B9069A92B9079A82B9B8F1BD
:1032F000390F29D0009B002B01DD05F13108059B1A
:103300005D1C83F8008082E73046C2E70123E3E7D3
:10331000009A002A04DB25D1069A1ABB079A0ABB39
:10332000002BECDD01220499204600F05BFE3946BB
:10333000049000F0ABFE002803DCE0D118F0010F90
:10334000DDD0B8F1390FD8D1059B059A5D1C392322
:10335000137015F8013C392B05F1FF324FD00133C2
:10336000137054E7059A002B02F1010506DDB8F150
:10337000390FE9D008F10108059BC2E7029A05F868
:10338000018CA5EB0B03934221D000230A22049960
:10339000204600F073FCB14504904FF000034FF05D
:1033A0000A024946204605D100F068FC81460646DF
:1033B000059576E700F062FC3146814600230A223B
:1033C000204600F05BFC0646F2E74FF000090122C0
:1033D0000499204600F006FE3946049000F056FE9F
:1033E0000028B6DC02D118F0010FB2D115F8013C6B
:1033F000302B05F1FF327FF40AAF1546F6E793450F
:1034000005D131230AF1010A8BF80030FFE6154699
:103410009FE7DFF864B007E0219BDFF860B01BB1E5
:103420000BF10803219A1360584617B0BDE8F08FDE
:10343000069B012B7FF735AE0E9B079349E6029B57
:10344000002B03DC069B022B3FF7CCAE5D463946D2
:103450000498FFF7CFF900F1300805F8018B029AC4
:10346000A5EB0B039A42B0DD00230A220499204603
:1034700000F004FC0490EAE7AC6000082861000852
:10348000F0B506694B119E4200F1140430DD11F0D5
:103490001F0104EB860604EB830208D12146B242E9
:1034A0000B4611D252F8043B41F8043BF7E754F8BD
:1034B0002350C1F1200CCD4004322346B2421746BE
:1034C0000CD31D6005B104331A1BA3424FEAA202BC
:1034D00008BF0023026108BF4361F0BD3F6807FADF
:1034E0000CF73D4343F8045B52F8045BCD40E5E73D
:1034F0002346E9E7A0F13003092B02D82038C0B2F7
:103500007047A0F16103052B01D84738F7E7A0F118
:103510004103052B01D82738F1E7002070472DE93A
:10352000F04F8BB08A46029016980693904600F0B2
:10353000D0FA036803931846FEF7A4FA039B0190A0
:1035400003444FF0000B13F8013C0793DAF8003006
:1035500002331F4613F8010B30286CD0FFF7CAFF67
:10356000044600286AD1019A0399384601F050F9BF
:10357000002866D1019BF85CFE18FFF7BBFF00280E
:1035800062D03346187830281F4603F10103F9D082
:10359000FFF7B0FFB0FA80F56D0934464FF0010B2C
:1035A0003A46164601323078FFF7A4FF0028F8D1DA
:1035B000019A0399304601F02BF950B954B9019B97
:1035C000F4182246164601323078FFF793FF0028A0
:1035D000F8D10CB1A41BA4003378502B01D0702B70
:1035E00040D173782B2B31D02D2B33D0711C4FF061
:1035F00000090878FFF77EFF431EDBB2182B31D895
:10360000A0F1100211F8010FFFF774FF431EDBB2A7
:10361000182B22D9B9F1000F00D052421444CAF835
:1036200000100DB3BBF1000F0CBF06270027384672
:103630000BB0BDE8F08F0BF1010B8AE700252C469B
:10364000AEE73E460125C7E70446FBE74FF0000919
:10365000B11CCEE74FF00109FAE70A2303FB02028F
:10366000103ACFE73146DAE7F31B013B2946072B37
:1036700049DC029800F0B7FA019B00F114094FF001
:10368000000BC3F101030546CDF81090DA4608930C
:10369000B7423BD3049840F804ABA0EB090080107C
:1036A00028614701504600F062FBD8F800603F1ADD
:1036B000B74264DDBF1B3946284600F071FE8246E2
:1036C00078B17B1E591103F01F024FF0010A59F81F
:1036D00021100AFA02F20A4203D0534546DC4FF0A9
:1036E000020A39462846FFF7CBFE3C44D8F808309A
:1036F000A34252DA2946029800F0A9FA149A00234C
:103700001360A32793E701315B10B0E7731E0593A5
:10371000079A16F8013C934218D0BBF1200F07D14D
:10372000049BC3F800A004334FF0000A0493D3466F
:1037300016F8010CFFF7DEFE00F00F0000FA0BF0A8
:103740004AEA000A0BF1040B059B0DE0059B089A61
:103750001344BB42E1D31846019A0399099301F03F
:1037600057F8099B0028D8D11E4691E7B91E284674
:1037700000F016FE0028B2D04FF0030AB1E709DAD4
:10378000F71B29463A46029800F02CFCE41B05463C
:1037900000F114094FF0000AA8E7D8F80400A0428D
:1037A0006ADD041BA6422EDCD8F80C30022B22D096
:1037B000032B24D0012B15D1A64213D1012E0BDCF3
:1037C000069AD8F80430136001232B61C9F8003041
:1037D000149B62271D602AE7711E284600F0E0FD59
:1037E0000028EDD12946029800F031FA149A0023FE
:1037F000136050271BE7159B002BE1D0F2E7159BC8
:10380000002BDDD1EEE7671EBAF1000F31D127B1F1
:103810003946284600F0C4FD82467A11012307F09C
:103820001F0703FA07F759F8223021461F4228469E
:1038300018BF4AF0020A361BFFF722FED8F80440F0
:103840000227BAF1000F48D0D8F80C30022B15D05F
:10385000032B17D0012B09D11AF0020F06D0D9F88B
:1038600000304AEA030A1AF0010F0ED147F01007A0
:1038700033E04FF0010AD0E70127E2E7159BC3F1DF
:1038800001031593159B002BF0D0D5F8109005F18E
:1038900014034FEA890A03EB0A014FF0000C1846A3
:1038A00053F8042BB2F1FF3F1CD001320260022F0B
:1038B00005F1140338D1D8F80020013AB2420AD1F8
:1038C0007111012206F01F0653F8213002FA06F6A4
:1038D0001E4218BF174647F02007149B1D60069B29
:1038E0001C60A4E6994243F804CCD8D8AB6899454B
:1038F00012DB69680298013100F075F92A69023219
:1039000005F10C01834692000C3000F061F9294664
:10391000029800F09CF95D462B695A1C05EB830365
:103920002A6101225A61C2E72A694A450BDD012159
:103930002846FFF7A5FDD8F808300134A342FFF66A
:10394000D9AE0127C7E716F01F06FAD09A44C6F190
:1039500020065AF8040C00F00AFAB042E7DBF0E760
:10396000C2F10802920070B5C2F1200643680468F3
:1039700003FA06F52C43D340046040F8043F884224
:10398000F4D370BD30B50368013311F8014B14B99D
:103990000360012030BD13F8012BA2F14105192D60
:1039A00098BF2032A242F0D00020F3E72DE9F04F7B
:1039B0000B6801685F1102EB870713F01F0387B0E4
:1039C00018BF043700253E1F82469046019347F8F2
:1039D000045CB14634460295AB464A784B1C0393CF
:1039E00042B3104605910492FFF784FD002843D1AD
:1039F000049A0599202A18D8029B9B4513DD4C4553
:103A000006D2072D04DC2A4649462046FFF7A8FFC8
:103A1000444544D90023A4F1040944F8043CCDF8FA
:103A200008B04C461D460399D7E7292A4AD10231EE
:103A3000CAF80010BBF1000F44D04C4506D2072D48
:103A400004DC2A4649462046FFF78AFF444528D928
:103A5000434654F8042B43F8042BA642F9D2002223
:103A600043F8042B9E42FBD233681BB9464527D14D
:103A700001233360052026E00135082D0BF1010BF1
:103A800006DD4445CFD9002344F8043C0125043C1D
:103A9000226800F00F0040EA02102060C3E708250A
:103AA000C1E7019B002BDFD04FF0FF32C3F12003B1
:103AB00022FA03F357F8042C1A4047F8042CD3E7F2
:103AC000043ED1E7042007B0BDE8F08FD0F8EC0049
:103AD0007047F03070470000044B1B68186A044BB5
:103AE000002808BF1846F030704700BF00000020D3
:103AF00064000020024B0146186800F0CFBC00BFF4
:103B00000000002082B001B901A942B14BB1137885
:103B10000B601278101C18BF012002B070471046CD
:103B2000FBE76FF00100F8E7000000000000000074
:103B300001F0FF01102A2BDB10F0070F08D010F85E
:103B4000013B013A8B422DD010F0070F42B3F6D162
:103B5000F0B441EA012141EA014122F007047FF07B
:103B600000070023F0E80256083C85EA010586EAD2
:103B7000010685FA47F5A3FA87F586FA47F6A5FA0E
:103B800087F68EB9EED1F0BC01F0FF0102F007021A
:103B900032B110F8013B013A83EA010313B1F8D1C5
:103BA0000020704701387047002D06BF35460338A6
:103BB000073815F0010F07D1013015F4807F02BFDF
:103BC000013015F4C03F0130F0BC0138704700BF30
:103BD00010B5431E0A44914200D110BD11F8014BAB
:103BE00003F8014FF7E770B5456A04460E463DB944
:103BF0001020FFF77FFF6062C0E901550560C560D6
:103C0000656AEB6883B1636ADB6853F82600B8B96C
:103C1000012101FA06F56A1D9200204600F0E1FB41
:103C200060B1C0E901650EE021220421204600F0C8
:103C3000D8FB636AE860DB68002BE4D1002070BD2C
:103C4000026843F826200023C0E90333F7E770B584
:103C5000446A06460D463CB91020FFF74BFF7062E0
:103C6000C0E901440460C4603DB1736A6A68DB68FE
:103C700053F82210296043F8225070BD2DE9F0411D
:103C80000D691F4606460C4601F1140C0023DCF8B2
:103C9000000081B202FB01710F0C000C02FB0070EE
:103CA00089B2013301EB00419D424FEA10474CF8C5
:103CB000041BECDCD7B1A368AB4212DC6168304670
:103CC0000131FFF790FF2269023204F10C018046B6
:103CD00092000C30FFF77CFF21463046FFF7B7FF1C
:103CE000444604EB850301355F6125612046BDE84C
:103CF000F0812DE9F8430C4615461F46092208338A
:103D0000064693FBF2F3002101229A4220DB304663
:103D1000FFF769FF089B4361092D4FF00103036121
:103D200019DD04F10908C1462C4419F8013B01468C
:103D3000303B0A223046FFF7A1FFA145F5D108EB41
:103D40000504083C2D1B6319BB4207DBBDE8F88363
:103D500052000131D9E70A340925F3E714F8013B91
:103D60000146303B0A223046FFF788FFEBE7020CA2
:103D700012040346B2B90304102013F07F4F04BFAE
:103D80001B02083013F0704F04BF1B01043013F006
:103D9000404F04BF9B000230002B06DB5B0003D5C5
:103DA000013070470020E8E720207047036813F0D7
:103DB000070201460BD0DA0723D4980749BF5B08F6
:103DC0009B0801200B605CBF0B600220704798B21B
:103DD000A8B91B0C102013F0FF0F04BF1B0A0830FA
:103DE0001A0704BF1B0904309A0704BF9B0802305E
:103DF000DA0702D45B0806D001300B60704710462A
:103E0000E9E7002070472020704710B50C460121DB
:103E1000FFF7E9FE01224461026110BD2DE9F74F71
:103E200014460A6923699A42B8BF0B468846BCBF4C
:103E3000A0461C46D8F81070D4F81090D8F8083076
:103E4000D8F8041007EB0906B342B8BF0131FFF7F9
:103E5000CAFE00F1140505EB860E2B4600227345C1
:103E600016D304F1140208F1140102EB890301EBEB
:103E700087070093009B019293420CD8002E03DD2C
:103E80005EF8043D002B5DD0066103B0BDE8F08F05
:103E900043F8042BE3E7B2F800B0BBF1000F23D0E6
:103EA0008946AC464FF0000859F8044BDCF800A0F6
:103EB000A3B21FFA8AFA0BFB03A34FEA144ADCF8F9
:103EC000004043444FEA14480BFB0A8404EB1344BC
:103ED000E2469BB243EA04434F454FEA14484AF88E
:103EE000043B2BD8CCF80480019BB3F802A0043229
:103EF000BAF1000F20D02B688946A8464FF0000B7E
:103F0000B9F800C0B8F802400AFB0C445C44C4464F
:103F10009BB243EA04434CF8043B59F8043BB8F81D
:103F200004B01B0C0AFB03B303EB14434F454FEAE9
:103F3000134B05D8C8F8043004359BE7D446B3E7E3
:103F4000E046DDE7013E99E72DE9F843154612F01A
:103F5000030206460F4607D0013A214C002354F8CD
:103F60002220FFF78BFE0746AD1035D0746A3CB9AE
:103F70001020FFF7BFFD7062C0E901440460C46017
:103F8000D6F82480D8F808404CB940F27121304668
:103F9000FFF73BFF0023C8F80800044603604FF01A
:103FA0000008EB070AD5394622463046FFF736FFB0
:103FB000394681463046FFF74AFE4F466D100BD01A
:103FC000206838B9224621463046FFF727FF206097
:103FD000C0F800800446E4E73846BDE8F88300BF37
:103FE000306200082DE9F0470C464FEA621A236957
:103FF00049680AEB0309A3680746164609F101055B
:10400000AB4232DB3846FFF7EEFD0023804600F17D
:1040100014011A4653452BDB20692AEAEA7A04F197
:10402000140316F01F0201EB8A0103EB800C25D06C
:10403000C2F1200E00201E688A46964030434AF89E
:10404000040B53F8040B9C4520FA0EF014D848607A
:1040500008B109F10205013D3846C8F81050214663
:10406000FFF7F5FD4046BDE8F08701315B00C7E78B
:1040700041F823200133CDE75146DCE7043953F8FA
:10408000042B41F8042F9C45F9D8E4E703690A6939
:104090009B1A30B50CD1920014301431841811449D
:1040A00054F8045D51F8042D954203D005D3012343
:1040B000184630BDA042F3D3FAE74FF0FF33F7E7DD
:1040C0002DE9F0470D460746114628461446FFF7EE
:1040D000DDFF061E08D131463846FFF784FD012377
:1040E000C0E90436BDE8F087A4BF23462C46384615
:1040F0006168A6BF1D4600260126FFF774FD2B69E7
:10410000C660266905F1140904F1140202EB860762
:1041100009EB830800F114054FF0000E52F804ABD0
:1041200059F8044B1EFA8AF1A3B2C91A230CC3EB47
:104130001A4303EB214389B24FEA234EC84541EAB3
:104140000343944645F8043BE8D8BC4504D355F8EE
:10415000043D83B10661C5E75CF8041B1EFA81F3D8
:104160001A1402EB11429BB243EA02434FEA224E79
:1041700045F8043BE9E7013EE9E70000124B10EE89
:10418000902A1A40A2F15073002B04DD002019463A
:1041900041EC100B70475B421B15132B4FF00000D6
:1041A0004FF0000104DC4FF4002242FA03F1EFE784
:1041B000143B1E2B4FF00102DABFC3F11F0302FABA
:1041C00003F313461846E3E70000F07FF8B50569EE
:1041D00000F1140707EB85052E1F55F8044C204607
:1041E000FFF7C5FDC0F120030A280B60DFF874C09B
:1041F00014DCC0F10B0E24FA0EF1B74241EA0C03B5
:1042000034BF55F8081C0021153004FA00F021FADB
:104210000EF140EA010243EC102BF8BDB7423ABF61
:10422000A5F1080655F8081C00210B3815D084406C
:10423000C0F1200544F07F5444F44014BE4221FAFA
:1042400005FC44EA0C038CBF56F8044C002401FA28
:1042500000F0EC4040EA0402DDE744EA0C030A46C1
:10426000D9E700BF0000F03F2DE9F7430E460121DA
:1042700059EC108B1546FFF7B6FCC9F30A540746F4
:10428000C9F3130334BB0193B8F1000327D002A88C
:1042900040F8083DFFF78AFD0099F0B1019AC0F19E
:1042A000200302FA03F30B43C2407B610192019B9E
:1042B000BB61002B14BF022101213961C4B1A4F2FA
:1042C000334404443460C0F135002860384603B0FC
:1042D000BDE8F08343F48013D5E77961E7E701A8EF
:1042E000FFF764FD019B7B61012139612030E5E727
:1042F00007EB8103A0F2324030601869FFF737FD09
:10430000C0EB4110E1E72DE9F74F88466946814649
:10431000FFF75CFF01A9404657EC106BFFF756FF13
:10432000D9F81030D8F81020A3EB020CDDE90032E8
:104330009B1A03EB4C135BEC10AB002BCEBF3A4641
:10434000C3EB03335A4659463D46D4BF02EB0351F3
:1043500002EB0355304610EE102A0B46294600F0BA
:10436000ADFD41EC100B03B0BDE8F08F013910B585
:1043700049111469013102F1140300EB810103EBCF
:104380008404A342024603D300238A4205D310BD0E
:1043900053F8042B40F8042BF3E742F8043BF4E70E
:1043A00000F1140200694B11984210B511DB0ADDCF
:1043B00011F01F0107D052F8234024FA01F000FA4F
:1043C00001F18C420BD102EB8303934203D800200E
:1043D00010BD0346F7E753F8041D0029F5D001206E
:1043E000F6E738B502FB01F4214600F057F8054620
:1043F00018B12246002100F043FA284638BD0000DB
:1044000038B50546002945D051F8043C0C1F002B57
:10441000B8BFE41800F03CFA1F4A1368104633B9DD
:10442000636014602846BDE8384000F032BAA34209
:104430000CD921686218934204BF1A685B686360F4
:1044400004BF521822600460ECE713465A680AB1B0
:10445000A242FAD919685818A0420BD12068014429
:10446000581882421960DDD1106852685A600144C0
:104470001960D7E702D90C232B60D3E720682118F5
:104480008A4204BF11685268626004BF0918216043
:104490005C60C7E738BD00BF240E002070B5CD1C9E
:1044A00025F0030508350C2D38BF0C25002D0646D8
:1044B00001DBA94203D90C233360002070BD00F05A
:1044C000E7F9214A1468214691B9204C23681BB9A9
:1044D000304600F08DF920602946304600F088F91A
:1044E000431C24D10C233360304600F0D2F9E4E7BA
:1044F0000B685B1B18D40B2B0FD90B60CD50CC185D
:10450000304600F0C6F904F10B00231D20F007002F
:10451000C31AD3D05A42E250D0E78C424B6816BF40
:10452000636013600C46EBE70C464968CCE7C41C9B
:1045300024F00304A04205D0211A304600F058F9B7
:104540000130CFD02560DBE7240E0020280E0020AC
:104550002DE9F0478E689E4282460C469046994669
:1045600037D88A8912F4906F31D0256809696F1A9B
:104570006569022305EB450595FBF3F509F1010398
:104580003B449D4238BF1D46530530D52946FFF7B1
:1045900085FF064650B90C23CAF80030A38943F0C2
:1045A0004003A3814FF0FF30BDE8F0873A46216910
:1045B000FFF70EFBA38923F4906343F08003A381EC
:1045C000266165613E44ED1B2660A5604E464E4562
:1045D00000D94E4632464146206800F038F9A368BB
:1045E0009B1BA36023681E4426600020DCE72A464C
:1045F00000F050F906460028E2D121695046FFF745
:10460000FFFEC8E72DE9F04F9DB0804603938B89EC
:104610001D060C4616460FD50B696BB94021FFF7F6
:104620003DFF2060206128B90C23C8F800304FF00E
:10463000FF30C7E0402363610023099320238DF8F6
:10464000293030238DF82A304FF0010B37463D4694
:1046500015F8013B0BB1252B3ED1B7EB060A0BD069
:104660005346324621464046FFF772FF013000F0C4
:10467000A480099B534409933B78002B00F09D8054
:1046800000234FF0FF32CDE90523049307938DF803
:1046900053301A932F46052217F8011B4F48FFF796
:1046A00047FA049BD0B9D90644BF20228DF8532085
:1046B0001A0744BF2B228DF853202A782A2A15D0B6
:1046C000079A2F4600200A25394611F8013B303B56
:1046D000092B4DD9B8B10FE02F46B8E73F4A801AF1
:1046E0000BFA00F0184304903D46D3E7039A111DDE
:1046F00012680391002A01DB079204E0524243F062
:104700000203079204933B782E2B0CD17B782A2B43
:1047100033D1039B1A1D1B680392002BB8BF4FF0C7
:10472000FF33023705932E4D397803222846FFF7D1
:10473000FFF938B14023401B03FA00F0049B034308
:1047400001370493397827488DF8281006227E1CFB
:10475000FFF7EEF9002838D0234B13BB039B073338
:1047600023F0070308330393099B4B4409936DE738
:1047700005FB023201200F46A6E70023013705930F
:1047800019460A25384610F8012B303A092A03D970
:10479000002BC8D00591C6E705FB01210123074680
:1047A000F0E703AB00932246104B04A94046FCF708
:1047B00099FBB0F1FF3F8146D6D1A3895B063FF557
:1047C00036AF09981DB0BDE8F08F03AB00932246C9
:1047D000064B04A94046FCF73BFEEAE73C620008B2
:1047E0004262000846620008E50E000851450008D4
:1047F00038B5064C002305460846236000F07CFDD2
:10480000431C02D1236803B12B6038BD300E002059
:1048100010B56AB10139841810F8013B11F8012F65
:10482000934203D1A04201D0002BF5D1981A10BDBC
:104830001046FCE749B1FF2A85BF8A2303600A704E
:104840004FF0FF3098BF01207047084670478842FC
:1048500010B501EB020307D8421E99420AD011F8A5
:10486000014B02F8014FF8E78342F5D98118D21ABB
:10487000D34200D110BD13F8014D01F8014DF7E707
:1048800002440346934200D1704703F8011BF9E745
:1048900070477047F8B5074614460E4621B91146D1
:1048A000BDE8F840FFF7FABD22B9FFF7A9FD25469C
:1048B0002846F8BD00F014F8A0420FD22146384631
:1048C000FFF7ECFD05460028F2D031462246FFF7FF
:1048D0007FF931463846FFF793FDE9E73546E7E7CC
:1048E00051F8043C181F002BBCBF0B58C018704770
:1048F00081F0004102E000BF83F0004330B54FEA91
:1049000041044FEA430594EA050F08BF90EA020FFD
:104910001FBF54EA000C55EA020C7FEA645C7FEA90
:10492000655C00F0E2804FEA5454D4EB5555B8BFB3
:104930006D420CDD2C4480EA020281EA030382EA24
:10494000000083EA010180EA020281EA0303362DB6
:1049500088BF30BD11F0004F4FEA01314FF4801C89
:104960004CEA113102D0404261EB410113F0004F9B
:104970004FEA03334CEA133302D0524263EB430352
:1049800094EA050F00F0A780A4F10104D5F1200EF0
:104990000DDB02FA0EFC22FA05F2801841F100014B
:1049A00003FA0EF2801843FA05F359410EE0A5F11F
:1049B00020050EF1200E012A03FA0EFC28BF4CF050
:1049C000020C43FA05F3C01851EBE37101F0004506
:1049D00007D54FF0000EDCF1000C7EEB00006EEB13
:1049E0000101B1F5801F1BD3B1F5001F0CD349089D
:1049F0005FEA30004FEA3C0C04F101044FEA4452F4
:104A000012F5800F80F09A80BCF1004F08BF5FEA7A
:104A1000500C50F1000041EB045141EA050130BD5A
:104A20005FEA4C0C404141EB010111F4801FA4F1FD
:104A30000104E9D191F0000F04BF01460020B1FA52
:104A400081F308BF2033A3F10B03B3F120020CDA8A
:104A50000C3208DD02F1140CC2F10C0201FA0CF068
:104A600021FA02F10CE002F11402D8BFC2F1200CCD
:104A700001FA02F120FA0CFCDCBF41EA0C01904083
:104A8000E41AA2BF01EB0451294330BD6FEA0404CC
:104A90001F3C1CDA0C340EDC04F11404C4F12002B7
:104AA00020FA04F001FA02F340EA030021FA04F3C9
:104AB00045EA030130BDC4F10C04C4F1200220FA20
:104AC00002F001FA04F340EA0300294630BD21FA5E
:104AD00004F0294630BD94F0000F83F4801306BF24
:104AE00081F480110134013D4EE77FEA645C18BF18
:104AF0007FEA655C29D094EA050F08BF90EA020FAF
:104B000005D054EA000C04BF1946104630BD91EAA6
:104B1000030F1EBF0021002030BD5FEA545C05D1A9
:104B20004000494128BF41F0004130BD14F58004E8
:104B30003CBF01F5801130BD01F0004545F0FE415C
:104B400041F470014FF0000030BD7FEA645C1ABF91
:104B5000194610467FEA655C1CBF0B46024650EAC8
:104B6000013406BF52EA033591EA030F41F40021F4
:104B700030BD00BF90F0000F04BF0021704730B57A
:104B80004FF4806404F132044FF000054FF000014F
:104B900050E700BF90F0000F04BF0021704730B510
:104BA0004FF4806404F1320410F0004548BF4042E5
:104BB0004FF000013EE700BF42004FEAE2014FEA3A
:104BC00031014FEA02701FBF12F07F4393F07F4F15
:104BD00081F06051704732F07F4208BF704793F018
:104BE0007F4F04BF41F40021704730B54FF460742B
:104BF00001F0004521F000411CE700BF50EA01022E
:104C000008BF704730B54FF000050AE050EA0102D6
:104C100008BF704730B511F0004502D5404261EB46
:104C200041014FF4806404F132045FEA915C3FF487
:104C3000D8AE4FF003025FEADC0C18BF03325FEA24
:104C4000DC0C18BF033202EBDC02C2F1200300FAD5
:104C500003FC20FA02F001FA03FE40EA0E0021FAFA
:104C600002F11444BDE600BF70B54FF0FF0C4CF4E8
:104C7000E06C1CEA11541DBF1CEA135594EA0C0F9A
:104C800095EA0C0F00F0DEF82C4481EA030621EAD5
:104C90004C5123EA4C5350EA013518BF52EA033510
:104CA00041F4801143F4801338D0A0FB02CE4FF0C2
:104CB0000005E1FB02E506F00042E0FB03E54FF0F2
:104CC0000006E1FB03569CF0000F18BF4EF0010EEA
:104CD000A4F1FF04B6F5007F64F5407404D25FEAE6
:104CE0004E0E6D4146EB060642EAC62141EA555199
:104CF0004FEAC52040EA5E504FEACE2EB4F1FD0CDB
:104D000088BFBCF5E06F1ED8BEF1004F08BF5FEA58
:104D1000500E50F1000041EB045170BD06F000460A
:104D200046EA010140EA020081EA0301B4EB5C04B7
:104D3000C2BFD4EB0C0541EA045170BD41F48011AF
:104D40004FF0000E013C00F3AB8014F1360FDEBFD4
:104D5000002001F0004170BDC4F10004203C35DAB0
:104D60000C341BDC04F11404C4F1200500FA05F333
:104D700020FA04F001FA05F240EA020001F00042D4
:104D800021F0004110EBD37021FA04F642EB06014A
:104D90005EEA430E08BF20EAD37070BDC4F10C0474
:104DA000C4F1200500FA04F320FA05F001FA04F238
:104DB00040EA020001F0004110EBD37041F1000124
:104DC0005EEA430E08BF20EAD37070BDC4F120052F
:104DD00000FA05F24EEA020E20FA04F301FA05F297
:104DE00043EA020321FA04F001F0004121FA04F23F
:104DF00020EA020000EBD3705EEA430E08BF20EA0F
:104E0000D37070BD94F0000F0FD101F00046400048
:104E100041EB010111F4801F08BF013CF7D041EACA
:104E2000060195F0000F18BF704703F000465200CE
:104E300043EB030313F4801F08BF013DF7D043EA9F
:104E40000603704794EA0C0F0CEA135518BF95EA55
:104E50000C0F0CD050EA410618BF52EA4306D1D1DC
:104E600081EA030101F000414FF0000070BD50EAFB
:104E7000410606BF1046194652EA430619D094EA85
:104E80000C0F02D150EA013613D195EA0C0F05D16F
:104E900052EA03361CBF104619460AD181EA0301C3
:104EA00001F0004141F0FE4141F470014FF000007B
:104EB00070BD41F0FE4141F4780170BD70B54FF016
:104EC000FF0C4CF4E06C1CEA11541DBF1CEA135596
:104ED00094EA0C0F95EA0C0F00F0A7F8A4EB050478
:104EE00081EA030E52EA03354FEA013100F088806F
:104EF0004FEA03334FF0805545EA131343EA126338
:104F00004FEA022245EA111545EA10654FEA0026EC
:104F10000EF000419D4208BF964244F1FD0404F5A5
:104F2000407402D25B084FEA3202B61A65EB030501
:104F30005B084FEA32024FF480104FF4002CB6EBBE
:104F4000020E75EB030E22BFB61A754640EA0C003E
:104F50005B084FEA3202B6EB020E75EB030E22BF7E
:104F6000B61A754640EA5C005B084FEA3202B6EBBF
:104F7000020E75EB030E22BFB61A754640EA9C007E
:104F80005B084FEA3202B6EB020E75EB030E22BF4E
:104F9000B61A754640EADC0055EA060E18D04FEA0C
:104FA000051545EA16754FEA06164FEAC30343EAAC
:104FB00052734FEAC2025FEA1C1CC0D111F4801F79
:104FC0000BD141EA00014FF000004FF0004CB6E772
:104FD00011F4801F04BF01430020B4F1FD0C88BF11
:104FE000BCF5E06F3FF6AFAEB5EB030C04BFB6EB1C
:104FF000020C5FEA500C50F1000041EB045170BD0F
:105000000EF0004E4EEA113114EB5C04C2BFD4EB3B
:105010000C0541EA045170BD41F480114FF0000EBF
:10502000013C90E645EA060E8DE60CEA135594EA3B
:105030000C0F08BF95EA0C0F3FF43BAF94EA0C0F3E
:105040000AD150EA01347FF434AF95EA0C0F7FF4B3
:1050500025AF104619462CE795EA0C0F06D152EA07
:1050600003353FF4FDAE1046194622E750EA4106EB
:1050700018BF52EA43067FF4C5AE50EA41047FF4FC
:105080000DAF52EA43057FF4EBAE12E74FF0FF3C61
:1050900006E000BF4FF0010C02E000BF4FF0010C32
:1050A0004DF804CD4FEA410C7FEA6C5C4FEA430CAB
:1050B00018BF7FEA6C5C1BD001B050EA410C0CBFFA
:1050C00052EA430C91EA030F02BF90EA020F00205C
:1050D000704710F1000F91EA030F58BF994208BFC3
:1050E00090422CBFD8176FEAE37040F00100704780
:1050F0004FEA410C7FEA6C5C02D150EA013C07D1D7
:105100004FEA430C7FEA6C5CD6D152EA033CD3D021
:105110005DF8040B704700BF8446104662468C461B
:105120001946634600E000BF01B5FFF7B7FF00284E
:1051300048BF10F1000F01BD4DF808EDFFF7F4FF77
:105140000CBF012000205DF808FB00BF4DF808ED02
:10515000FFF7EAFF34BF012000205DF808FB00BF25
:105160004DF808EDFFF7E0FF94BF012000205DF847
:1051700008FB00BF4DF808EDFFF7CEFF94BF0120FC
:1051800000205DF808FB00BF4DF808EDFFF7C4FFF5
:1051900034BF012000205DF808FB00BF4FEA410C3E
:1051A0007FEA6C5C02D150EA013C0AD14FEA430C21
:1051B0007FEA6C5C02D152EA033C02D14FF000005E
:1051C00070474FF0010070474FEA410212F500129C
:1051D00015D211D56FF47873B3EB625212D94FEA3E
:1051E000C12343F0004343EA505311F0004F23FA28
:1051F00002F018BF404270474FF00000704750EA7D
:10520000013005D111F0004008BF6FF00040704739
:105210004FF00000704700BF4A0011D212F5001293
:1052200011D20DD56FF47873B3EB62520ED44FEAFE
:10523000C12343F0004343EA505323FA02F070477E
:105240004FF00000704750EA013002D14FF0FF30BC
:1052500070474FF0000070474FEA4102B2F1E0435F
:1052600024BFB3F5001CDCF1FE5C0DD901F0004C4D
:105270004FEAC0024CEA5070B2F1004F40EB83009D
:1052800008BF20F00100704711F0804F21D113F1C9
:105290003872BCBF01F00040704741F480114FEA02
:1052A0005252C2F11802C2F1200C10FA0CF320FA8B
:1052B00002F018BF40F001004FEAC1234FEAD323A8
:1052C00003FA0CFC40EA0C0023FA02F34FEA430312
:1052D000CCE77FEA625307D150EA01331EBF4FF09B
:1052E000FE4040F44000704701F0004040F0FE40B6
:1052F00040F40000704700BF044A05491368002BC2
:1053000008BF0B4618441060184670472C0E00204A
:10531000340E0020044B98420CBF40F2194040F27A
:105320001A4000F04FBA00BF006400402DE9F3417D
:1053300004689DF820809DF824E09DF828C09DF821
:105340003C609DF8407024F002040460046844F05E
:10535000010404604FF6FF740194019C013C019428
:10536000051D14B14468E407F7D52C68E40770D52F
:105370000024C461002951D0016841F0800101601E
:10538000002A4FD0026842F040020260002B4DD04C
:10539000036843F0200303600368B8F1000F49D0AD
:1053A00043F0100303600368BEF1000F45D043F0E3
:1053B000080303600368BCF1000F41D043F004030D
:1053C0000360C369002F3ED043F00043C361C3694B
:1053D000002E3BD043F08043C3610E9B0D99C26900
:1053E000013BC3F309030B430C990B430B990B438C
:1053F0001343C361036823F0010303604FF6FF7397
:105400000193019B013B019313B12B68DB07F8D497
:10541000286800F0010002B0BDE8F081016821F0C9
:105420008001ACE7026822F04002AEE7036823F097
:105430002003B0E723F01003B4E723F00803B8E734
:1054400023F00403BCE723F00043BFE723F08043CD
:10545000C2E70120DFE70000F0B5204E9DF81C7088
:10546000356845F0010535601D4D0124D5F800C0B3
:105470008440E6430CEA060CC5F800C0DFF86CC0B7
:1054800009B3DCF800102143CCF800101549F2B143
:105490000A68224300F1006000F6C8400A60C000BC
:1054A000069A0360059B43600F4B9AB11A6822432A
:1054B0001A6017B12B681C432C60084A136823F04C
:1054C00001031360F0BDDCF800103140DCE70A682E
:1054D0003240DFE71A6816401E60EAE700660040C7
:1054E0001C66004004660040146600400C660040E4
:1054F0001FB59DF818400092CDE9013400220B46FB
:105500000121FFF7A9FF04B010BD436919434161B0
:105510007047436923EA0101416170472DE9F04179
:10552000804680689DF818E0079D46012AD4D8F887
:10553000080004012AD4D8F80800C00050D54FF460
:10554000D076022006EB080422B3C90041F0040122
:1055500046F808101BB1236843F002032360636818
:1055600023F00F03636062680EF00F031343636060
:105570000EF1FF33072B2AD8DFE803F02623201B88
:105580001815120E4FF4C0760020DBE74FF4C876F2
:105590000120D7E74905DBE7EB79002763F31F67B5
:1055A000AB7963F317476B7963F30F272B7963F3B9
:1055B0000707EB784FF0000C63F31F6CAB7863F3D5
:1055C000174C6B7863F30F2C2B7863F3070CC4F83C
:1055D00008C0E760236843F001032360BDE8F08161
:1055E0004FF0FF30FAE721B9C36843F02003C360EE
:1055F0007047036943F02003036170472DE9F347C7
:105600004FF4D8764FF4E075CDE9006502AD05EBB7
:105610008105DDE90AA955F8085C475917F0040728
:105620001BBF01278AF800708AF8007047590ABF2B
:105630004759FF087F0D1F604359461913F00203B5
:1056400018BF012389F80030DDE90C8E73681B0A4E
:1056500088F800307368DDE90E4C03F00F038EF814
:105660000030BCF1000F03D073681B0CACF80030A5
:10567000B568F3682570C5F307266670C5F307465D
:10568000C5F30765E570C3F3072523716571C3F39F
:105690000745C3F30763A670A571E37122B102B099
:1056A000BDE8F047FFF79FBF02B0BDE8F087836811
:1056B00013F0E05F14BF0120002070478161704744
:1056C000090481617047436901EA030221EA030189
:1056D00041EA0241816170472DE9F0410568C468E3
:1056E00000264FF0030E43FA06F7FF070FD57700A9
:1056F0000EFA07FC6FEA0C0C01FA07F80CEA050534
:105700000CEA040402FA07F748EA05053C430136AF
:10571000102EE8D10560C460BDE8F0810129416820
:105720000CBF19439943F0B54160816800240326FA
:1057300043FA04F5ED0707D5650006FA05F721EAF7
:10574000070102FA05F529430134102CF0D18160DC
:10575000F0BDF0B5076A466A00234FF00F0C42FA1D
:1057600003F4E50707D59D000CFA05F427EA0407C2
:1057700001FA05F52F430133082BF0D14FF00F0C40
:1057800042FA03F4E4070AD503F18044083CA4007C
:105790000CFA04F526EA050601FA04F4264301335F
:1057A000102BEDD107624662F0BD430903F180433F
:1057B00003F50E3300F01F021968012090400843E2
:1057C00018607047430903F1804303F50E3300F07E
:1057D0001F02196801209040014319601A6822EAEB
:1057E0000000186070470000062822D8DFE800F0AB
:1057F00004171C090E1315000F4B1868C0F3406006
:1058000070470D4B1868C0F3404070470A4B18684A
:10581000C0F340007047094BF9E7094BF7E7064B27
:105820001868C0F340707047034B1868C0F3C0603D
:1058300070470020704700BF0038024070380240B7
:105840007438024008B502461046FFF7CDFF002825
:10585000FAD008BD06280AD8DFE800F004181D0AAF
:105860000F1416000E4A136843F0807313607047DC
:105870000B4A136843F48033F8E7094A136843F08E
:105880000103F3E7074AF9E7074AF7E7044A136811
:1058900043F08053EAE7024A136843F08063E5E788
:1058A00000380240703802407438024006280AD896
:1058B000DFE800F004181D0A0F1416000E4A1368E2
:1058C00023F08073136070470B4A136823F480330E
:1058D000F8E7094A136823F00103F3E7074AF9E7F9
:1058E000074AF7E7044A136823F08053EAE7024ABD
:1058F000136823F08063E5E7003802407038024007
:1059000074380240034A136823F0030318431060FD
:10591000704700BF08380240034A136823F460430D
:1059200043EA40301060704708380240034A136869
:1059300023F4E05343EA80201060704708380240A7
:10594000034A136823F0F00343EA00101060704725
:105950000838024010B547F6C07404EA811100F01F
:105960003F001B0603F0706301431943029B540878
:10597000022B04F1FF344FEA044438BF022304F43D
:1059800040341B0703F0E04321431943014B1960E6
:1059900010BD00BF043802401B0603F0706300F026
:1059A0003F0043F48003034347F6C07000EA8111CF
:1059B0000B435108009A0139022A4FEA014138BFCE
:1059C000022201F44031120702F0E0420B4313437C
:1059D000014A1360704700BF0438024037B50446DF
:1059E0000420FFF737FF0420FFF72CFF0020FFF70C
:1059F00089FFE379012B05D10320FFF72BFF03205B
:105A0000FFF720FF40F61C00FFF7CFFEE07B00F021
:105A100037FB207BFFF794FF607BFFF787FFA07BBE
:105A2000FFF77AFF254A6188136823F080731360BB
:105A3000E379A579227920780095012B637931D11A
:105A4000FFF7AAFF1D4A136843F08073136000201C
:105A5000FFF7F8FEA3685A0527D500F0F1FAA3680E
:105A60009B0525D500F0FCFAA06800F0DFFA0220C3
:105A7000FFF748FF124A1368C3F38103022BFAD1E0
:105A8000104B22691A60104B62691A600F4BA269B1
:105A90001A60E379012B0ED1042003B0BDE8304039
:105AA000FFF704BFFFF756FFCCE700F0D1FAD6E7C7
:105AB00000F0DEFAD8E703B030BD00BF0038024086
:105AC00008380240D0010020D4010020D801002075
:105AD00010B50468134324F45C740B432343036040
